Archive member included because of file (symbol)

C:\apes\docs\lcpxpresso-projects\ARM\LPC1114\tests\CMSISv2p00_LPC11xx\Debug\libCMSISv2p00_LPC11xx.a(system_LPC11xx.o)
                              ./src/blink-test.o (SystemCoreClockUpdate)
c:/nxp/lpcxpresso_7.5.0_254/lpcxpresso/tools/bin/../lib/gcc/arm-none-eabi/4.8.4/../../../../arm-none-eabi/lib/armv6-m\libcr_c.a(__weak__main.o)
                              ./src/cr_startup_lpc11xx.o (__main)
c:/nxp/lpcxpresso_7.5.0_254/lpcxpresso/tools/bin/../lib/gcc/arm-none-eabi/4.8.4/armv6-m\libcr_eabihelpers.a(division_32.o)
                              ./src/blink-test.o (__aeabi_uidiv)
c:/nxp/lpcxpresso_7.5.0_254/lpcxpresso/tools/bin/../lib/gcc/arm-none-eabi/4.8.4/armv6-m\libcr_eabihelpers.a(division_idiv0.o)
                              c:/nxp/lpcxpresso_7.5.0_254/lpcxpresso/tools/bin/../lib/gcc/arm-none-eabi/4.8.4/armv6-m\libcr_eabihelpers.a(division_32.o) (__aeabi_idiv0)

Discarded input sections

 .group         0x00000000        0x8 ./src/blink-test.o
 .group         0x00000000        0x8 ./src/blink-test.o
 .group         0x00000000        0x8 ./src/blink-test.o
 .group         0x00000000        0x8 ./src/blink-test.o
 .group         0x00000000        0x8 ./src/blink-test.o
 .group         0x00000000        0x8 ./src/blink-test.o
 .group         0x00000000        0x8 ./src/blink-test.o
 .group         0x00000000        0x8 ./src/blink-test.o
 .group         0x00000000        0x8 ./src/blink-test.o
 .group         0x00000000        0x8 ./src/blink-test.o
 .text          0x00000000        0x0 ./src/blink-test.o
 .data          0x00000000        0x0 ./src/blink-test.o
 .bss           0x00000000        0x0 ./src/blink-test.o
 .group         0x00000000        0x8 ./src/cr_startup_lpc11xx.o
 .text          0x00000000        0x0 ./src/cr_startup_lpc11xx.o
 .data          0x00000000        0x0 ./src/cr_startup_lpc11xx.o
 .bss           0x00000000        0x0 ./src/cr_startup_lpc11xx.o
 .debug_macro   0x00000000      0x820 ./src/cr_startup_lpc11xx.o
Memory Configuration

Name             Origin             Length             Attributes
MFlash32         0x00000000         0x00008000         xr
RamLoc8          0x10000000         0x00002000         xrw
*default*        0x00000000         0xffffffff

Linker script and memory map

LOAD ./src/blink-test.o
LOAD ./src/cr_startup_lpc11xx.o
LOAD ./src/crp.o
LOAD C:\apes\docs\lcpxpresso-projects\ARM\LPC1114\tests\CMSISv2p00_LPC11xx\Debug\libCMSISv2p00_LPC11xx.a
START GROUP
LOAD c:/nxp/lpcxpresso_7.5.0_254/lpcxpresso/tools/bin/../lib/gcc/arm-none-eabi/4.8.4/../../../../arm-none-eabi/lib/armv6-m\libcr_c.a
LOAD c:/nxp/lpcxpresso_7.5.0_254/lpcxpresso/tools/bin/../lib/gcc/arm-none-eabi/4.8.4/armv6-m\libcr_eabihelpers.a
END GROUP
                0x00008000                __top_MFlash32 = 0x8000
                0x10002000                __top_RamLoc8 = 0x10002000

.text           0x00000000      0x818
 FILL mask 0xff
                0x00000000                __vectors_start__ = ABSOLUTE (.)
 *(.isr_vector)
 .isr_vector    0x00000000       0xc0 ./src/cr_startup_lpc11xx.o
                0x00000000                g_pfnVectors
                0x000000c0                . = ALIGN (0x4)
                0x000000c0                __section_table_start = .
                0x000000c0                __data_section_table = .
                0x000000c0        0x4 LONG 0x818 LOADADDR (.data)
                0x000000c4        0x4 LONG 0x10000000 ADDR (.data)
                0x000000c8        0x4 LONG 0x4 SIZEOF (.data)
                0x000000cc                __data_section_table_end = .
                0x000000cc                __bss_section_table = .
                0x000000cc        0x4 LONG 0x10000004 ADDR (.bss)
                0x000000d0        0x4 LONG 0x4 SIZEOF (.bss)
                0x000000d4                __bss_section_table_end = .
                0x000000d4                __section_table_end = .
 *(.after_vectors*)
 .after_vectors
                0x000000d4      0x128 ./src/cr_startup_lpc11xx.o
                0x000000d4                data_init
                0x00000114                bss_init
                0x00000148                ResetISR
                0x000001cc                NMI_Handler
                0x000001d4                HardFault_Handler
                0x000001dc                SVC_Handler
                0x000001e4                PendSV_Handler
                0x000001ec                SysTick_Handler
                0x000001f4                TIMER32_1_IRQHandler
                0x000001f4                IntDefaultHandler
                0x000001f4                PIOINT1_IRQHandler
                0x000001f4                CAN_IRQHandler
                0x000001f4                TIMER32_0_IRQHandler
                0x000001f4                UART_IRQHandler
                0x000001f4                TIMER16_1_IRQHandler
                0x000001f4                ADC_IRQHandler
                0x000001f4                SSP1_IRQHandler
                0x000001f4                PIOINT2_IRQHandler
                0x000001f4                BOD_IRQHandler
                0x000001f4                WAKEUP_IRQHandler
                0x000001f4                PIOINT0_IRQHandler
                0x000001f4                I2C_IRQHandler
                0x000001f4                WDT_IRQHandler
                0x000001f4                TIMER16_0_IRQHandler
                0x000001f4                SSP0_IRQHandler
                0x000001f4                PIOINT3_IRQHandler
                0x000002fc                . = 0x2fc
 *fill*         0x000001fc      0x100 ff
                0x000002fc                PROVIDE (__CRP_WORD_START__, .)
 *(.crp)
 .crp           0x000002fc        0x4 ./src/crp.o
                0x000002fc                CRP_WORD
                0x00000300                PROVIDE (__CRP_WORD_END__, .)
                0x00000001                ASSERT (! ((__CRP_WORD_START__ == __CRP_WORD_END__)), Linker CRP Enabled, but no CRP_WORD provided within application)
 *(.text*)
 .text.main     0x00000300       0x6c ./src/blink-test.o
                0x00000300                main
 .text.ledConfig
                0x0000036c       0x4c ./src/blink-test.o
                0x0000036c                ledConfig
 .text.motorConfig
                0x000003b8       0x7c ./src/blink-test.o
                0x000003b8                motorConfig
 .text.sysTickConfig
                0x00000434       0x34 ./src/blink-test.o
                0x00000434                sysTickConfig
 .text.delayUs  0x00000468       0x58 ./src/blink-test.o
                0x00000468                delayUs
 .text.NRFPinsTest
                0x000004c0      0x164 ./src/blink-test.o
                0x000004c0                NRFPinsTest
 .text.SystemCoreClockUpdate
                0x00000624       0xa0 C:\apes\docs\lcpxpresso-projects\ARM\LPC1114\tests\CMSISv2p00_LPC11xx\Debug\libCMSISv2p00_LPC11xx.a(system_LPC11xx.o)
                0x00000624                SystemCoreClockUpdate
 .text.SystemInit
                0x000006c4       0x90 C:\apes\docs\lcpxpresso-projects\ARM\LPC1114\tests\CMSISv2p00_LPC11xx\Debug\libCMSISv2p00_LPC11xx.a(system_LPC11xx.o)
                0x000006c4                SystemInit
 .text.__weak_main
                0x00000754        0x8 c:/nxp/lpcxpresso_7.5.0_254/lpcxpresso/tools/bin/../lib/gcc/arm-none-eabi/4.8.4/../../../../arm-none-eabi/lib/armv6-m\libcr_c.a(__weak__main.o)
                0x00000754                __weak_main
                0x00000754                __main
 .text.__aeabi_division_idivmod
                0x0000075c       0x78 c:/nxp/lpcxpresso_7.5.0_254/lpcxpresso/tools/bin/../lib/gcc/arm-none-eabi/4.8.4/armv6-m\libcr_eabihelpers.a(division_32.o)
                0x0000075c                __aeabi_idivmod
                0x0000075c                __aeabi_idiv
                0x00000762                __aeabi_uidivmod
                0x00000762                __aeabi_uidiv
 .text.__aeabi_division_idiv0
                0x000007d4        0x2 c:/nxp/lpcxpresso_7.5.0_254/lpcxpresso/tools/bin/../lib/gcc/arm-none-eabi/4.8.4/armv6-m\libcr_eabihelpers.a(division_idiv0.o)
                0x000007d4                __aeabi_idiv0
 *(.rodata .rodata.* .constdata .constdata.*)
 *fill*         0x000007d6        0x2 
 .rodata.CSWTCH.7
                0x000007d8       0x40 C:\apes\docs\lcpxpresso-projects\ARM\LPC1114\tests\CMSISv2p00_LPC11xx\Debug\libCMSISv2p00_LPC11xx.a(system_LPC11xx.o)
                0x00000818                . = ALIGN (0x4)

.glue_7         0x00000818        0x0
 .glue_7        0x00000000        0x0 linker stubs

.glue_7t        0x00000818        0x0
 .glue_7t       0x00000000        0x0 linker stubs

.vfp11_veneer   0x00000818        0x0
 .vfp11_veneer  0x00000000        0x0 linker stubs

.v4_bx          0x00000818        0x0
 .v4_bx         0x00000000        0x0 linker stubs

.iplt           0x00000818        0x0
 .iplt          0x00000000        0x0 ./src/blink-test.o

.rel.dyn        0x00000818        0x0
 .rel.iplt      0x00000000        0x0 ./src/blink-test.o

.ARM.extab
 *(.ARM.extab* .gnu.linkonce.armextab.*)
                0x00000818                __exidx_start = .

.ARM.exidx
 *(.ARM.exidx* .gnu.linkonce.armexidx.*)
                0x00000818                __exidx_end = .
                0x00000818                _etext = .

.uninit_RESERVED
                0x10000000        0x0
 *(.bss.$RESERVED*)
                0x10000000                . = ALIGN (0x4)
                0x10000000                _end_uninit_RESERVED = .

.data           0x10000000        0x4 load address 0x00000818
 FILL mask 0xff
                0x10000000                _data = .
 *(vtable)
 *(.ramfunc*)
 *(.data*)
 .data.SystemCoreClock
                0x10000000        0x4 C:\apes\docs\lcpxpresso-projects\ARM\LPC1114\tests\CMSISv2p00_LPC11xx\Debug\libCMSISv2p00_LPC11xx.a(system_LPC11xx.o)
                0x10000000                SystemCoreClock
                0x10000004                . = ALIGN (0x4)
                0x10000004                _edata = .

.igot.plt       0x10000004        0x0 load address 0x0000081c
 .igot.plt      0x00000000        0x0 ./src/blink-test.o

.bss            0x10000004        0x4 load address 0x0000081c
                0x10000004                _bss = .
 *(.bss*)
 .bss.count.4340
                0x10000004        0x4 ./src/blink-test.o
 *(COMMON)
                0x10000008                . = ALIGN (0x4)
                0x10000008                _ebss = .
                0x10000008                PROVIDE (end, .)

.noinit         0x10000008        0x0 load address 0x0000081c
                0x10000008                _noinit = .
 *(.noinit*)
                0x10000008                . = ALIGN (0x4)
                0x10000008                _end_noinit = .
                0x10000008                PROVIDE (_pvHeapStart, DEFINED (__user_heap_base)?__user_heap_base:.)
                0x10002000                PROVIDE (_vStackTop, DEFINED (__user_stack_top)?__user_stack_top:(__top_RamLoc8 - 0x0))
OUTPUT(blink-test.axf elf32-littlearm)

.debug_info     0x00000000      0xbb3
 .debug_info    0x00000000      0x520 ./src/blink-test.o
 .debug_info    0x00000520      0x1fe ./src/cr_startup_lpc11xx.o
 .debug_info    0x0000071e       0x3f ./src/crp.o
 .debug_info    0x0000075d      0x456 C:\apes\docs\lcpxpresso-projects\ARM\LPC1114\tests\CMSISv2p00_LPC11xx\Debug\libCMSISv2p00_LPC11xx.a(system_LPC11xx.o)

.debug_abbrev   0x00000000      0x3c1
 .debug_abbrev  0x00000000      0x19f ./src/blink-test.o
 .debug_abbrev  0x0000019f       0xe6 ./src/cr_startup_lpc11xx.o
 .debug_abbrev  0x00000285       0x36 ./src/crp.o
 .debug_abbrev  0x000002bb      0x106 C:\apes\docs\lcpxpresso-projects\ARM\LPC1114\tests\CMSISv2p00_LPC11xx\Debug\libCMSISv2p00_LPC11xx.a(system_LPC11xx.o)

.debug_aranges  0x00000000       0xe8
 .debug_aranges
                0x00000000       0x48 ./src/blink-test.o
 .debug_aranges
                0x00000048       0x60 ./src/cr_startup_lpc11xx.o
 .debug_aranges
                0x000000a8       0x18 ./src/crp.o
 .debug_aranges
                0x000000c0       0x28 C:\apes\docs\lcpxpresso-projects\ARM\LPC1114\tests\CMSISv2p00_LPC11xx\Debug\libCMSISv2p00_LPC11xx.a(system_LPC11xx.o)

.debug_ranges   0x00000000       0xa0
 .debug_ranges  0x00000000       0x38 ./src/blink-test.o
 .debug_ranges  0x00000038       0x50 ./src/cr_startup_lpc11xx.o
 .debug_ranges  0x00000088       0x18 C:\apes\docs\lcpxpresso-projects\ARM\LPC1114\tests\CMSISv2p00_LPC11xx\Debug\libCMSISv2p00_LPC11xx.a(system_LPC11xx.o)

.debug_macro    0x00000000     0x1d8a
 .debug_macro   0x00000000       0x88 ./src/blink-test.o
 .debug_macro   0x00000088      0x820 ./src/blink-test.o
 .debug_macro   0x000008a8       0x1c ./src/blink-test.o
 .debug_macro   0x000008c4       0x2e ./src/blink-test.o
 .debug_macro   0x000008f2       0x10 ./src/blink-test.o
 .debug_macro   0x00000902      0x12d ./src/blink-test.o
 .debug_macro   0x00000a2f      0x5b2 ./src/blink-test.o
 .debug_macro   0x00000fe1      0x237 ./src/blink-test.o
 .debug_macro   0x00001218      0x131 ./src/blink-test.o
 .debug_macro   0x00001349       0x82 ./src/blink-test.o
 .debug_macro   0x000013cb       0x34 ./src/blink-test.o
 .debug_macro   0x000013ff       0x1d ./src/cr_startup_lpc11xx.o
 .debug_macro   0x0000141c       0x1a ./src/crp.o
 .debug_macro   0x00001436      0x13a C:\apes\docs\lcpxpresso-projects\ARM\LPC1114\tests\CMSISv2p00_LPC11xx\Debug\libCMSISv2p00_LPC11xx.a(system_LPC11xx.o)
 .debug_macro   0x00001570      0x81a C:\apes\docs\lcpxpresso-projects\ARM\LPC1114\tests\CMSISv2p00_LPC11xx\Debug\libCMSISv2p00_LPC11xx.a(system_LPC11xx.o)

.debug_line     0x00000000      0x5dd
 .debug_line    0x00000000      0x2da ./src/blink-test.o
 .debug_line    0x000002da       0xc2 ./src/cr_startup_lpc11xx.o
 .debug_line    0x0000039c       0x78 ./src/crp.o
 .debug_line    0x00000414      0x1c9 C:\apes\docs\lcpxpresso-projects\ARM\LPC1114\tests\CMSISv2p00_LPC11xx\Debug\libCMSISv2p00_LPC11xx.a(system_LPC11xx.o)

.debug_str      0x00000000     0x5f59
 .debug_str     0x00000000     0x56e2 ./src/blink-test.o
                               0x5760 (size before relaxing)
 .debug_str     0x000056e2      0x178 ./src/cr_startup_lpc11xx.o
                               0x247e (size before relaxing)
 .debug_str     0x0000585a       0x16 ./src/crp.o
                               0x23e0 (size before relaxing)
 .debug_str     0x00005870      0x6e9 C:\apes\docs\lcpxpresso-projects\ARM\LPC1114\tests\CMSISv2p00_LPC11xx\Debug\libCMSISv2p00_LPC11xx.a(system_LPC11xx.o)
                               0x5597 (size before relaxing)

.comment        0x00000000       0xe0
 .comment       0x00000000       0x70 ./src/blink-test.o
                                 0x71 (size before relaxing)
 .comment       0x00000000       0x71 ./src/cr_startup_lpc11xx.o
 .comment       0x00000000       0x71 ./src/crp.o
 .comment       0x00000000       0x71 C:\apes\docs\lcpxpresso-projects\ARM\LPC1114\tests\CMSISv2p00_LPC11xx\Debug\libCMSISv2p00_LPC11xx.a(system_LPC11xx.o)
 .comment       0x00000070       0x70 c:/nxp/lpcxpresso_7.5.0_254/lpcxpresso/tools/bin/../lib/gcc/arm-none-eabi/4.8.4/../../../../arm-none-eabi/lib/armv6-m\libcr_c.a(__weak__main.o)
                                 0x71 (size before relaxing)

.ARM.attributes
                0x00000000       0x2f
 .ARM.attributes
                0x00000000       0x31 ./src/blink-test.o
 .ARM.attributes
                0x00000031       0x31 ./src/cr_startup_lpc11xx.o
 .ARM.attributes
                0x00000062       0x31 ./src/crp.o
 .ARM.attributes
                0x00000093       0x31 C:\apes\docs\lcpxpresso-projects\ARM\LPC1114\tests\CMSISv2p00_LPC11xx\Debug\libCMSISv2p00_LPC11xx.a(system_LPC11xx.o)
 .ARM.attributes
                0x000000c4       0x31 c:/nxp/lpcxpresso_7.5.0_254/lpcxpresso/tools/bin/../lib/gcc/arm-none-eabi/4.8.4/../../../../arm-none-eabi/lib/armv6-m\libcr_c.a(__weak__main.o)
 .ARM.attributes
                0x000000f5       0x21 c:/nxp/lpcxpresso_7.5.0_254/lpcxpresso/tools/bin/../lib/gcc/arm-none-eabi/4.8.4/armv6-m\libcr_eabihelpers.a(division_32.o)
 .ARM.attributes
                0x00000116       0x21 c:/nxp/lpcxpresso_7.5.0_254/lpcxpresso/tools/bin/../lib/gcc/arm-none-eabi/4.8.4/armv6-m\libcr_eabihelpers.a(division_idiv0.o)

.debug_frame    0x00000000      0x21c
 .debug_frame   0x00000000       0xc0 ./src/blink-test.o
 .debug_frame   0x000000c0      0x118 ./src/cr_startup_lpc11xx.o
 .debug_frame   0x000001d8       0x44 C:\apes\docs\lcpxpresso-projects\ARM\LPC1114\tests\CMSISv2p00_LPC11xx\Debug\libCMSISv2p00_LPC11xx.a(system_LPC11xx.o)

.debug_loc      0x00000000       0x84
 .debug_loc     0x00000000       0x84 C:\apes\docs\lcpxpresso-projects\ARM\LPC1114\tests\CMSISv2p00_LPC11xx\Debug\libCMSISv2p00_LPC11xx.a(system_LPC11xx.o)
