:100000000020001049010000CD010000D5010000D2
:1000100000000000000000000000000000000000E0
:10002000000000000000000000000000DD010000F2
:100030000000000000000000E5010000ED010000EC
:10004000F5010000F5010000F5010000F5010000D8
:10005000F5010000F5010000F5010000F5010000C8
:10006000F5010000F5010000F5010000F5010000B8
:10007000F5010000F5010000F5010000F5010000A8
:10008000F5010000F5010000F5010000F501000098
:10009000F5010000F5010000000000000000000074
:1000A000F5010000F5010000F5010000000000006E
:1000B000F5010000D9050000A5050000F5010000CC
:1000C0000C150000000000100400000004000010E7
:1000D0006001000080B588B000AFF860B9607A6058
:1000E000BB68FB61FB68BB6100237B610AE0FB69C5
:1000F0001A1DFA61BA69111DB96112681A607B692B
:1001000004337B617A697B689A42F0D3BD4608B0BC
:1001100080BDC04680B584B000AF786039607B6830
:10012000FB600023BB6007E0FB681A1DFA60002239
:100130001A60BB680433BB60BA683B689A42F3D369
:10014000BD4604B080BDC04680B584B000AF1C4B36
:10015000FB6016E0FB681A1DFA601B68BB60FB6859
:100160001A1DFA601B687B60FB681A1DFA601B6829
:100170003B60B9687A683B68081C111C1A1CFFF7C1
:10018000A9FFFA680F4B9A42E4D30FE0FB681A1DEF
:10019000FA601B687B60FB681A1DFA601B683B6095
:1001A0007A683B68101C191CFFF7B4FFFA68064B0D
:1001B0009A42EBD300F09AFD00F0E0FDFEE7C04666
:1001C000C0000000CC000000D400000080B500AFEB
:1001D000FEE7C04680B500AFFEE7C04680B500AF81
:1001E000FEE7C04680B500AFFEE7C04680B500AF71
:1001F000FEE7C04680B500AFFEE7C046FFFFFFFF49
:10020000FFFFFFFFFFFFFFFFFFFFFFFFFFFFFFFFFE
:10021000FFFFFFFFFFFFFFFFFFFFFFFFFFFFFFFFEE
:10022000FFFFFFFFFFFFFFFFFFFFFFFFFFFFFFFFDE
:10023000FFFFFFFFFFFFFFFFFFFFFFFFFFFFFFFFCE
:10024000FFFFFFFFFFFFFFFFFFFFFFFFFFFFFFFFBE
:10025000FFFFFFFFFFFFFFFFFFFFFFFFFFFFFFFFAE
:10026000FFFFFFFFFFFFFFFFFFFFFFFFFFFFFFFF9E
:10027000FFFFFFFFFFFFFFFFFFFFFFFFFFFFFFFF8E
:10028000FFFFFFFFFFFFFFFFFFFFFFFFFFFFFFFF7E
:10029000FFFFFFFFFFFFFFFFFFFFFFFFFFFFFFFF6E
:1002A000FFFFFFFFFFFFFFFFFFFFFFFFFFFFFFFF5E
:1002B000FFFFFFFFFFFFFFFFFFFFFFFFFFFFFFFF4E
:1002C000FFFFFFFFFFFFFFFFFFFFFFFFFFFFFFFF3E
:1002D000FFFFFFFFFFFFFFFFFFFFFFFFFFFFFFFF2E
:1002E000FFFFFFFFFFFFFFFFFFFFFFFFFFFFFFFF1E
:1002F000FFFFFFFFFFFFFFFFFFFFFFFFFFFFFFFF0E
:1003000080B582B000AF021CFB1D1A70064BFA1DAF
:100310001278111C1F220A400121081C9040021C67
:100320001A60BD4602B080BD00E100E080B582B039
:1003300000AF021CFB1D1A70084AFB1D1B78191C1C
:100340001F230B400121081C9840031C191CC023CB
:100350005B00D150BD4602B080BDC04600E100E068
:10036000B0B582B000AF021C3960FB1D1A70FB1DD6
:100370001B787F2B32D93049FB1D1B781A1C0F23A9
:100380001340083B98082C4AFB1D1B781C1C0F23AC
:100390002340083B9B0806339B00D3185B68FA1D7B
:1003A0001278141C03222240D200FF24251C954001
:1003B0002A1CD2431A403B689C01FF231C40FB1DB2
:1003C0001B781D1C03232B40DB00251C9D402B1C90
:1003D0001A43831D9B00CB185A6029E0174BFA1D66
:1003E000127852B292081549F81D007840B2800880
:1003F000C03080004158F81D0078041C03202040C4
:10040000C000FF24251C8540281CC04308403968D3
:100410008C01FF210C40F91D09780D1C0321294096
:10042000C900251C8D40291C0143C0329200D150C7
:10043000BD4602B0B0BDC04600ED00E000E100E006
:1004400098B500AF3B4A3B498023CB5880214901F6
:1004500019438023D150374A98230221D150364A7C
:100460003549A423CB581B218B4301211943A423D5
:10047000D150314A3049A823CB581B218B4301214D
:100480001943A823D1502D4B2C4AD26880210A430E
:10049000DA602A4C2A4B1A6826499823CB58101C3C
:1004A000191C00F0A2FF031C181C9623990200F0EF
:1004B0009CFF031C2360214B00225A601F4B1F4AE4
:1004C000926A10210A439A621C4B1C4AD26880210E
:1004D0008A43DA60194B194AD26803210A43DA6069
:1004E000164B164AD2680C218A43DA60134B134A22
:1004F000926807210A439A60104B00221A600F4B42
:100500001B680E4B0D4A9268C0218A439A600B4BC0
:100510000A4A526801210A435A6015200221FFF756
:100520001FFF1520FFF7ECFE1520FFF7FFFEBD466D
:1005300098BDC04600800440004004400080004058
:100540000000001080B582B000AF021CFB1D1A70C5
:10055000054B5A6920231340FAD0034BFA1D127839
:100560001A60BD4602B080BD0080004080B586B0F4
:1005700000AFF860B9607A6000237B6109E0BA6877
:100580007B69D3181B78181CFFF7DCFF7B690133EC
:100590007B617A687B699A42F1D87B68181CBD46FA
:1005A00006B080BD80B500AF084A094BD258012380
:1005B000134009D0054A0549064BCB580121194380
:1005C000044BD15000F0C0FABD4680BD0000015080
:1005D000188000001C80000080B500AF0F4A104B4F
:1005E000D2581023134016D00E4B1B78642B03D126
:1005F0000C4B6C221A7002E00A4B64221A700A4BF0
:10060000181C00F057F9054A0449084BCB58102133
:100610001943064BD150BD4680BDC0460000025074
:10062000188000000400001068B302001C80000065
:1006300080B500AF00F05AFB00F008FBFFF700FFA9
:1006400000F01EF900F05CF900F00AF800F036F84E
:1006500000F066F800F0BAF900F076FAFEE7C0465E
:1006600080B500AF134B134A526801210A435A6008
:10067000104A10498023CB58802109011943802357
:10068000D1500C4A94230121D1500B4B0A4A1268D5
:1006900007210A431A60084B074A526802210A439D
:1006A0005A60054B044A126904210A431A61BD4687
:1006B00080BDC046008004400000044080B500AF0B
:1006C000154A15498023CB58402119438023D15026
:1006D000124A1249B023CB5803218B4302211943FC
:1006E000B023D1500D4B0D4AD26C1B218A430221FD
:1006F0000A43DA64094B094A526E1B218A430121DD
:100700000A435A66054B054A126E1B218A43012192
:100710000A431A66BD4680BD008004400040044084
:1007200080B500AF434B434AD26903218A43DA6163
:10073000A023DA05A023D90580231B02CB5804216E
:10074000194380231B02D150A023DA05A023D90529
:10075000394BCB580421181C8843011C364BD1500F
:10076000344A34498423CB580321181C8843011C84
:100770008423D150314A314980231B02CB580121B7
:10078000194380231B02D1502C4A2C492A4BCB58A9
:1007900001211943284BD150264B264A916F284AF4
:1007A0000A4091210A439A67264A264980231B0260
:1007B000CB580121181C8843011C80231B02D150F7
:1007C000204A20491C4BCB58012119431A4BD150C8
:1007D0001C4A1C491C4BCB58012119431A4BD150C0
:1007E000184A1849194BCB580121181C8843011C81
:1007F000164BD150134A1349154BCB580121181CE5
:100800008843011C124BD1500E4A0E49114BCB5854
:100810000121181C8843011C0E4BD1501E200121C0
:10082000FFF79EFD1E20FFF76BFD1E20FFF77EFDEC
:10083000BD4680BD00400440FC3F00000000035066
:1008400064FBFFFF000001501080000004800000E6
:10085000088000000C80000080B582B000AF021C50
:10086000FB1D1A70054BFA1D12789A60034BDA686B
:1008700012231340FAD0BD4602B080BD00000440F0
:1008800098B500AF084C094B1B68181C084900F0CC
:10089000ACFD031C013B6360034B034A1268042157
:1008A0000A431A60BD4698BD10E000E00000001049
:1008B00040420F0080B584B000AF78600F4B0F4A04
:1008C000126801210A431A600023FB6008E00B4B09
:1008D0001A6880235B021340F9D0FB680133FB6088
:1008E000FA687B689A42F2D3044B044A12680121E9
:1008F0008A431A60BD4604B080BDC04610E000E0E7
:1009000080B500AF2A4B2A4A126C1B218A43102162
:100910000A431A64264B264A526C1B218A43102133
:100920000A435A64234A234980231B02CB583021AF
:10093000181C8843011C80231B02D1501D4A1D49ED
:100940001D4BCB58302119431B4BD150194A194923
:100950001A4BCB5830211943184BD150154A154921
:10096000174BCB583021181C8843011C144BD15015
:10097000104A1049134BCB583021181C8843011CD6
:10098000104BD1500B4A0B490F4BCB583021181C40
:100990008843011C0C4BD1501D20FFF7B1FC1D20DA
:1009A0000121FFF7DDFC1D20FFF7C0FCBD4680BD27
:1009B0000040044000000250FC3F00001080000096
:1009C00004800000088000000C80000080B500AFAB
:1009D0005B4A5B495B4BCB580121181C8843011CC7
:1009E000584BD1503020FFF737FF4B20FFF734FF33
:1009F000C220FFF731FFC220FFF72EFFC220FFF712
:100A00002BFFC220FFF728FF4D4A4D494D4BCB58D5
:100A1000012119434B4BD150494A4949494BCB58C5
:100A20000121181C8843011C464BD1502420FFF79C
:100A300013FF0020FFF710FF414A4149414BCB58BB
:100A4000012119433F4BD1503D4A3D493D4BCB58C5
:100A50000121181C8843011C3A4BD1500520FFF797
:100A6000FBFE6B20FFF7F8FE354A3549354BCB5876
:100A700001211943334BD150314A3149314BCB58C5
:100A80000121181C8843011C2E4BD1502620FFF752
:100A9000E3FE2620FFF7E0FE294A2949294BCB58DF
:100AA00001211943274BD150254A2549254BCB58C5
:100AB0000121181C8843011C224BD1502720FFF72D
:100AC000CBFE7020FFF7C8FE1D4A1D491D4BCB58B9
:100AD000012119431B4BD150194A1949194BCB58C5
:100AE0000121181C8843011C164BD1502020FFF710
:100AF000B3FE0E20FFF7B0FE114A1149114BCB583F
:100B0000012119430F4BD150A023DA05A023D905A9
:100B10000C4BCB58042119430A4BD1500F20FFF73F
:100B2000C9FEA023DA05A023D905064BCB58042122
:100B3000181C8843011C034BD150BD4680BDC046E4
:100B400000000350FC3F000080B500AF3A4A3A492C
:100B50003A4BCB580121181C8843011C374BD1500C
:100B60002720FFF779FE7020FFF776FE324A3249E0
:100B7000324BCB5801211943304BD1502E4A2E49CC
:100B80002E4BCB580121181C8843011C2B4BD150F4
:100B9000E120FFF761FE284A2749284BCB58012165
:100BA0001943264BD150244A2349244BCB580121C9
:100BB000181C8843011C214BD150A020FFF74CFE8C
:100BC0001F4B00221A700CE01D4B1B781D4AD35C92
:100BD000181CFFF741FE1A4B1B780133DAB2184B91
:100BE0001A70174B1B78092BEED9134A1249134B75
:100BF000CB5801211943114BD150A023DA05A02372
:100C0000D9050E4BCB58042119430C4BD1500F2062
:100C1000FFF750FEA023DA05A023D905074BCB58D8
:100C20000421181C8843011C044BD150064B181C8E
:100C3000FFF740FEBD4680BD00000350FC3F0000B2
:100C400010000010040000108813000038B5234C79
:100C50001F25626A616AD205214B120F294092005A
:100C60004900D058023100F0C0FB226F0321231C41
:100C70000A401C4C022A26D08A4209D0012A05D1FA
:100C80001A6C0A40022A1ED0032A1ED0164A1DE002
:100C9000196C0A40022A0DD0032A16D0C0209A6887
:100CA00040001149024203D19A6815400135694359
:100CB00021600CE0C02299685200114203D19A6869
:100CC000154001356843206001E000222260996FE1
:100CD000206800F08AFB206038BDC04600800440D8
:100CE000B014000000000010001BB7001D4B8E2246
:100CF000920099582020814310B5995000221A6221
:100D0000C822C046013A002AFBD101211964596466
:100D10005A645964596C134AC807FBD52321916062
:100D20008E21890050588024A0435050D86801215A
:100D30000C4A0842FAD00320106700205167506720
:100D40005167596F01221142FBD0064B06499A6741
:100D5000064BD967064B1A60064B1A60064B1A60A1
:100D600010BDC046008004405F00010004800440C4
:100D700094800440988004409C80044008B5002082
:100D8000011C021C00F004F8FFF752FC08BD000033
:100D900070B5244CA02200215200201C00F06EF8F7
:100DA000C02000F097F9204D0021C022286000F0FB
:100DB00065F828680023282218215A435943A218AD
:100DC000411801335162082BF5D1221C174900202C
:100DD00000F07AF8802280235B01201C0021D200E1
:100DE00000F028F8261C124D2836291C321C012040
:100DF00000F06AF880228023301C5B01503400210F
:100E0000D20000F017F8291C221C022000F05CF828
:100E100080228023201C0021D2005B0100F00AF810
:100E200070BDC0461C00001018000010F014000037
:100E3000F2140000F0B5C5680124AE071AD0802670
:100E4000B600B2420BD08026F600B24204D0802613
:100E5000A640B2420ED102E0416A231C04E0064ED5
:100E60005F1E0124B74205D82A4301610160C361B6
:100E7000C2600024201CF0BDFEFFFF0008B500F09A
:100E8000EEFA08BDC26820239A43436A10B5041CD9
:100E9000E2605B6882699A420DD000F049F8E2682E
:100EA000074B134010221343626AE3605368A36147
:100EB000236993602360E268024B1340E36010BD36
:100EC000EFCFFFFFBFBFFFFF70B50D1C061C101C4E
:100ED000141C00F00FF92B78722B06D0772B07D05B
:100EE000612B20D10823114A04E00023012201E0F4
:100EF00004230222013529782B2905D0622908D143
:100F000004210A43012102E003210A4302210B4389
:100F1000F0E7E26066611A0706D5201C0021022274
:100F200000F03AF900E00024201C70BD02800000AF
:100F300038B5436A041C056902689968C368134898
:100F40001840E06082201840022802D00120404270
:100F50001AE080204002184016D0914200D2111CA5
:100F6000A94209D1636AE2689D60094B00201340E1
:100F70002560A060E36007E0491B281C221C00F0EC
:100F800009F80028EED0E1E738BDC046FFFFF7FFC3
:100F9000FFFFFEFFF7B5D56801900E1C141C5769C2
:100FA000EA0205D51023381C1D4300F071FAA06138
:100FB000114B1D4208D0381CA16900F072FA0028BC
:100FC00013DB0E4B1D40E560321C381C0199FFF706
:100FD000CDFA801B431E9841404243005B08F61A3D
:100FE000A3699E19A661002805D0E26880231343F7
:100FF0000120E3604042FEBD10000200EFFFFDFF54
:10100000F8B52F4FC51C3C68AD0800280FD000264E
:1010100006E0216880235B05994215D0261CA46850
:10102000002CF6D10C3000F08DF9421C3CD1002090
:1010300045E01668802149058E4209D151689268C1
:101040005B1803336360A260A2686368002AF0D172
:10105000AB4206DBE91C994203DB80239B0523603E
:1010600020E0291C0A318B4210D980218905201CDF
:1010700021600C30A90041186560A1605B1B8024D1
:101080006405033B0C604B608A6018E0002AC5D100
:101090009B00C01A00F056F90130C8D080239B0590
:1010A00023606560201C09E080239B050360456088
:1010B0008460002E01D1386000E0B0600C30F8BDD3
:1010C0005C010010002803D080230C385B0503600E
:1010D0007047000010B5FFF793FF041E05D10449C7
:1010E0001722FFF743FA00F0CFF9201C10BDC046CD
:1010F000F4140000F0B5436AC5688BB0041C47695E
:1011000006690193AB0726D02B0716D400F02AF806
:10111000381C00F0BAF92B0502D5301CFFF7D2FFBE
:101120000F4BAD0DAD059D4207D102A8216A2022CB
:1011300000F0BAF902A800F0D1F800211822606A84
:10114000FFF79CFE201C00212822FFF797FE019B41
:101150000020636201E0012040420BB0F0BDC046B8
:10116000000080AD38B5002803D000F00BF9051C55
:101170000EE0041C051C0748201800F003F90028A5
:1011800001D001256D42A02328345B009C42F2D19E
:10119000281C38BD1C000010F7B53B4B0D1CC16866
:1011A000041C161C47690091194269D0381C00F0D4
:1011B00072F90190002863D1012E04D0022E07D0CD
:1011C000002E5DD123E0201C00F062F82D181EE0F7
:1011D000381C00F05DF9E168002804DA8023194327
:1011E000E16001264DE0626A266893689E4200D95C
:1011F000331CA6699B1926699B1B8E0603D5526872
:10120000934200DA131C834200DA031CED18002D10
:1012100036DB009E636AB60404D522689968914261
:1012200000D29A60A1698D420DDB20689A688242E3
:1012300000D2021C20695618361AB54203DCDF685A
:10124000CE19B54207DB009E00212022A16061601B
:1012500032435D6010E0009E6D1AB60701D5EF1BAA
:10126000A760009EF60702D5821AAA186260009A4B
:101270004519202325609A43044B1A40E26001E09F
:10128000022601960198FEBD03001000BFCFF7FFB4
:10129000C368990705D1104B212201201A604042F2
:1012A00018E0202219030BD5134202D0436A586874
:1012B00004E0036881695A180369D01A013809E00B
:1012C000134202D0436A586804E0036881695A18DF
:1012D0000369D01A7047C0461400001010B5041CF2
:1012E00000F006F8011C201C00F0D8F810BD00002A
:1012F00010B5411C820706D00130431E1B78002B1D
:10130000F8D1401A18E003680C4A9C180C4A9C4318
:10131000144201D10430F6E7DCB2421C002C0AD0A2
:10132000FF242402821C234205D0FF242404C21C73
:10133000234200D0021D501A10BDC046FFFEFEFE23
:101340008080808070B50C4C2368002B01D10B4B42
:101350002360C61C256803239E43AE19301C00F091
:1013600035F8002802D12660281C04E0044B0C222A
:1013700001201A60404270BD60010010640100103D
:1013800014000010C36870B5041C032018401AD064
:101390009A0605D5636A201C5D68FFF773FD04E0BB
:1013A0002368A2699D182369ED1AE268064B201C88
:1013B0001340E360FFF7BCFD291C061C0022201C23
:1013C000FFF7EAFE301C70BDFFCFFFFF044B002B80
:1013D00004D0002298425241101C00E0181C7047B3
:1013E0000000000003000B4321D4002931D001226A
:1013F000D207030901E0090112099942FBD9430808
:1014000001E0490052089942FBD900E04908401A1E
:1014100007D35241FAD30146104670474908401895
:10142000F7D29218FAD34018014610467047CB0FF6
:1014300000D04942021000D54042534008B5FFF7A2
:10144000D4FF0CBC521000D34042002A00D54942C0
:101450001847F446002000F001F8604770478446C2
:10146000043A09D3830707D109060B0A19430B0C69
:101470001943043A02C0FCD2043203D00170013097
:10148000013AFBD160467047FEE7012040427047B9
:1014900001204042704701204042704701204042F5
:1014A00070470120404270470120404270470000D1
:1014B000801A060020A1070000350C00E0C81000CB
:1014C000C05C1500006A180040771B0080841E0075
:1014D000C0912100009F240040AC2700E032290089
:1014E00020402C00604D2F0000D4300040E133003C
:1014F000720077002A2A2A205F437379735F616C38
:0C1500006C6F63206661696C65640A0012
:04150C00006CDC0291
:0400000300000149AF
:00000001FF
