:100000000020001049010000CD010000D5010000D2
:1000100000000000000000000000000000000000E0
:10002000000000000000000000000000DD010000F2
:100030000000000000000000E5010000ED010000EC
:10004000F5010000F5010000F5010000F5010000D8
:10005000F5010000F5010000F5010000F5010000C8
:10006000F5010000F5010000F5010000F5010000B8
:10007000F5010000F5010000F5010000F5010000A8
:10008000F5010000F5010000F5010000F501000098
:10009000F5010000F5010000000000000000000074
:1000A000F5010000F5010000F5010000000000006E
:1000B0000D07000049060000A5050000F50100003D
:1000C000E83D0000000000100400000004000010E3
:1000D0008001000080B588B000AFF860B9607A6038
:1000E000BB68FB61FB68BB6100237B610AE0FB69C5
:1000F0001A1DFA61BA69111DB96112681A607B692B
:1001000004337B617A697B689A42F0D3BD4608B0BC
:1001100080BDC04680B584B000AF786039607B6830
:10012000FB600023BB6007E0FB681A1DFA60002239
:100130001A60BB680433BB60BA683B689A42F3D369
:10014000BD4604B080BDC04680B584B000AF1C4B36
:10015000FB6016E0FB681A1DFA601B68BB60FB6859
:100160001A1DFA601B687B60FB681A1DFA601B6829
:100170003B60B9687A683B68081C111C1A1CFFF7C1
:10018000A9FFFA680F4B9A42E4D30FE0FB681A1DEF
:10019000FA601B687B60FB681A1DFA601B683B6095
:1001A0007A683B68101C191CFFF7B4FFFA68064B0D
:1001B0009A42EBD301F020F801F066F8FEE7C04662
:1001C000C0000000CC000000D400000080B500AFEB
:1001D000FEE7C04680B500AFFEE7C04680B500AF81
:1001E000FEE7C04680B500AFFEE7C04680B500AF71
:1001F000FEE7C04680B500AFFEE7C046FFFFFFFF49
:10020000FFFFFFFFFFFFFFFFFFFFFFFFFFFFFFFFFE
:10021000FFFFFFFFFFFFFFFFFFFFFFFFFFFFFFFFEE
:10022000FFFFFFFFFFFFFFFFFFFFFFFFFFFFFFFFDE
:10023000FFFFFFFFFFFFFFFFFFFFFFFFFFFFFFFFCE
:10024000FFFFFFFFFFFFFFFFFFFFFFFFFFFFFFFFBE
:10025000FFFFFFFFFFFFFFFFFFFFFFFFFFFFFFFFAE
:10026000FFFFFFFFFFFFFFFFFFFFFFFFFFFFFFFF9E
:10027000FFFFFFFFFFFFFFFFFFFFFFFFFFFFFFFF8E
:10028000FFFFFFFFFFFFFFFFFFFFFFFFFFFFFFFF7E
:10029000FFFFFFFFFFFFFFFFFFFFFFFFFFFFFFFF6E
:1002A000FFFFFFFFFFFFFFFFFFFFFFFFFFFFFFFF5E
:1002B000FFFFFFFFFFFFFFFFFFFFFFFFFFFFFFFF4E
:1002C000FFFFFFFFFFFFFFFFFFFFFFFFFFFFFFFF3E
:1002D000FFFFFFFFFFFFFFFFFFFFFFFFFFFFFFFF2E
:1002E000FFFFFFFFFFFFFFFFFFFFFFFFFFFFFFFF1E
:1002F000FFFFFFFFFFFFFFFFFFFFFFFFFFFFFFFF0E
:1003000080B582B000AF021CFB1D1A70064BFA1DAF
:100310001278111C1F220A400121081C9040021C67
:100320001A60BD4602B080BD00E100E080B582B039
:1003300000AF021CFB1D1A70084AFB1D1B78191C1C
:100340001F230B400121081C9840031C191CC023CB
:100350005B00D150BD4602B080BDC04600E100E068
:10036000B0B582B000AF021C3960FB1D1A70FB1DD6
:100370001B787F2B32D93049FB1D1B781A1C0F23A9
:100380001340083B98082C4AFB1D1B781C1C0F23AC
:100390002340083B9B0806339B00D3185B68FA1D7B
:1003A0001278141C03222240D200FF24251C954001
:1003B0002A1CD2431A403B689C01FF231C40FB1DB2
:1003C0001B781D1C03232B40DB00251C9D402B1C90
:1003D0001A43831D9B00CB185A6029E0174BFA1D66
:1003E000127852B292081549F81D007840B2800880
:1003F000C03080004158F81D0078041C03202040C4
:10040000C000FF24251C8540281CC04308403968D3
:100410008C01FF210C40F91D09780D1C0321294096
:10042000C900251C8D40291C0143C0329200D150C7
:10043000BD4602B0B0BDC04600ED00E000E100E006
:1004400098B500AF3B4A3B498023CB5880214901F6
:1004500019438023D150374A98230221D150364A7C
:100460003549A423CB581B218B4301211943A423D5
:10047000D150314A3049A823CB581B218B4301214D
:100480001943A823D1502D4B2C4AD26880210A430E
:10049000DA602A4C2A4B1A6826499823CB58101C3C
:1004A000191C02F072FF031C181C9623990202F01B
:1004B0006CFF031C2360214B00225A601F4B1F4A14
:1004C000926A10210A439A621C4B1C4AD26880210E
:1004D0008A43DA60194B194AD26803210A43DA6069
:1004E000164B164AD2680C218A43DA60134B134A22
:1004F000926807210A439A60104B00221A600F4B42
:100500001B680E4B0D4A9268C0218A439A600B4BC0
:100510000A4A526801210A435A6015200221FFF756
:100520001FFF1520FFF7ECFE1520FFF7FFFEBD466D
:1005300098BDC04600800440004004400080004058
:100540000000001080B582B000AF021CFB1D1A70C5
:10055000054B5A6920231340FAD0034BFA1D127839
:100560001A60BD4602B080BD0080004080B586B0F4
:1005700000AFF860B9607A6000237B6109E0BA6877
:100580007B69D3181B78181CFFF7DCFF7B690133EC
:100590007B617A687B699A42F1D87B68181CBD46FA
:1005A00006B080BD98B500AF1E4A1F4BD2588023BD
:1005B000DB00134034D01B4A1A491C4BCB58802116
:1005C000C9001943194BD150194B5B68002B1FDA36
:1005D000174B5A68E023DB0413401B0EDAB2154BAD
:1005E0001A70134B1B6B134A1278120213400FD16F
:1005F000104B1B781C1C0E4B5A680F4B13409B0969
:10060000181C052102F0C1FE031CDAB20B4B1A556F
:100610000B4A0C4B101C191C01F0A0FB00F0C6FC8F
:10062000BD4698BD00000150188000001C800000ED
:1006300000C0014004000010C0FF000014000010C2
:10064000EC3C0000F03C000080B500AF2A4A2B4B88
:10065000D258802313400AD0294B1B78002B03D09B
:10066000274B00221A7002E0254B01221A70224A01
:10067000224BD25880239B0013400AD0204B5B783A
:10068000002B03D01E4B00225A7002E01C4B0122AB
:100690005A70194A194BD25880235B0013400AD074
:1006A000174B9B78002B03D0154B00229A7002E069
:1006B000134B01229A70104A104BD2588023DB0052
:1006C00013400AD00E4BDB78002B03D00C4B0022DA
:1006D000DA7002E00A4B0122DA700A4B181C00F0B3
:1006E000CFFA054A0449084BCB58F021C9001943F9
:1006F000054BD150BD4680BD00000250188000005F
:100700001400001068B302001C80000080B500AF28
:10071000174A184BD258012313400AD0164B9B7B23
:10072000002B03D0144B00229A7302E0124B0122DB
:100730009A730F4A0F4BD258102313400AD00E4B16
:10074000DB7B002B03D00C4B0022DA7302E00A4B58
:100750000122DA73094B181C00F092FA044A04498A
:10076000074BCB5811211943054BD150BD4680BDD5
:1007700000000350188000001400001068B302004D
:100780001C80000080B500AF00F036FD00F0E4FCF6
:1007900000F05CFAFFF754FE00F042F900F028F890
:1007A00000F054F800F07CF900F0E2F900F080F875
:1007B000102000F0A3FC031C0B490C4A081C111C60
:1007C0001A1C01F0CBFA00F087FA102000F096FC1A
:1007D000031C0549054A081C111C1A1C01F0BEFA2D
:1007E00000F0E4FBFEE7C046FC3C0000043D0000D6
:1007F00080B500AF134B134A526801210A435A6077
:10080000104A10498023CB588021090119438023C5
:10081000D1500C4A94230121D1500B4B0A4A126843
:1008200007210A431A60084B074A526802210A430B
:100830005A60054B044A126904210A431A61BD46F5
:1008400080BDC046008004400000044080B500AF79
:10085000154A15498023CB58402119438023D15094
:10086000124A1249B023CB5803218B43012119436B
:10087000B023D1500D4B0D4A126F1B218A43012129
:100880000A431A67094B094A526E1B218A43012108
:100890000A435A66054B054A126E1B218A43012101
:1008A0000A431A66BD4680BD0080044000400440F3
:1008B00080B500AF3E4B3E4A526903218A435A61DC
:1008C0003C4A3C4980231B02CB58802149001943F4
:1008D00080231B02D150374A3649374BC958374B12
:1008E0001940354BD150324B314AD26903218A43EA
:1008F000DA61A023DA05A023D90580231B02CB5897
:100900000421194380231B02D150A023DA05A02320
:10091000D905294BCB5804211943274BD150244BDF
:10092000234AD26E1B218A4310210A43DA66214AE8
:10093000204980231B02C958214B194080231B02E8
:10094000D1501C4A1B491C4BCB588021C90019436C
:10095000194BD150174A17491A4BCB588021C9005F
:100960001943184BD150134A1249174BC958144B0D
:100970001940154BD1500F4A0E49144BC958104B12
:100980001940124BD1500B4A0A49114BC9580C4B14
:1009900019400F4BD1501E200121FFF7E1FC1E2012
:1009A000FFF7AEFC1E20FFF7C1FCBD4680BDC04670
:1009B0000040044000000150FC3F0000FFFEFFFF2C
:1009C000FFFBFFFF10800000048000000880000093
:1009D0000C80000080B582B000AF021CFB1D1A70B5
:1009E000054BDA6812231340FAD0034BFA1D127834
:1009F0009A60BD4602B080BD0000044080B500AFE3
:100A0000064BDA6812231340FAD0044B00229A6096
:100A1000024B9B68DBB2181CBD4680BD0000044041
:100A200080B500AF1A4A1A498E239B00CB5810217B
:100A3000181C8843011C8E239B00D150144A144972
:100A40008023CB588021890119438023D150114B39
:100A5000104A526F9B218A4302210A435A670D4B69
:100A60000C4A926F9B218A4302210A439A67094BE1
:100A7000084AD26F9B218A4302210A43DA67064B58
:100A8000054A126805490A431A60BD4680BDC04642
:100A9000008004400040044000C00140010101000A
:100AA00080B500AF2D4B2D4A526D1B218A4310217A
:100AB0000A435A65294B294A126A1B218A4310218D
:100AC0000A431A62254A25498423CB581B218B43AC
:100AD000102119438423D150204B204AD26B1B2173
:100AE0008A4310210A43DA631C4B1C4A926D1B2176
:100AF0008A4310210A439A65184B184A526A1B21EF
:100B00008A4310210A435A62154A154980231B0261
:100B1000C958144B194080231B02D150104A104968
:100B2000114BCB58F021C90019430F4BD1500F4A3C
:100B30000E4980231B02CB581121181C8843011C2D
:100B400080231B02D150094A0849074BCB58112179
:100B50001943054BD150BD4680BDC04600400440FE
:100B6000000002507FF8FFFFFC3F00000000035030
:100B700080B500AF2E4A2E492E4BCB58F021C9002C
:100B800019432C4BD1502A4A29492B4BC9582B4B7E
:100B90001940294BD150264A2549294BC958274B82
:100BA0001940274BD150224A2149264BC958234B83
:100BB0001940244BD1501D20FFF7A2FB1D2001211D
:100BC000FFF7CEFB1D20FFF7B1FB1F4A1E49194B53
:100BD000CB5811211943174BD1501B4A1A49164BB8
:100BE000CB581121181C8843011C134BD150164AB5
:100BF0001549134BCB581121181C8843011C104B6D
:100C0000D150114A10490F4BCB581121181C884361
:100C1000011C0C4BD1501C20FFF772FB1C20012142
:100C2000FFF79EFB1C20FFF781FBBD4680BDC04641
:100C30000000025010800000048000007FF8FFFFD9
:100C4000088000000C8000000000035098B500AF41
:100C5000084C094B1B68181C084902F096FB031C42
:100C6000013B6360034B034A126804210A431A6084
:100C7000BD4698BD10E000E00000001040420F00AB
:100C800080B582B000AF7860114B114A1268012123
:100C90000A431A600F4B00221A600AE00C4B1A68D4
:100CA00080235B021340F9D00A4B1B685A1C094B86
:100CB0001A60084B1A687B689A42EFD3044B044AC7
:100CC000126801218A431A60BD4602B080BDC04649
:100CD00010E000E00800001080B500AFA023DA05A6
:100CE000A023D905AE4BCB580421181C8843011C06
:100CF000AB4BD1502A20FFF76DFE4B20FFF76AFE69
:100D0000C220FFF767FEC220FFF764FEC220FFF794
:100D100061FEC220FFF75EFEA023DA05A023D905FD
:100D20009F4BCB58042119439D4BD150A023DA058A
:100D3000A023D9059A4BCB580421181C8843011CC9
:100D4000974BD1503020FFF745FE4B20FFF742FE76
:100D5000C220FFF73FFEC220FFF73CFEC220FFF794
:100D600039FEC220FFF736FEA023DA05A023D905FD
:100D70008B4BCB5804211943894BD150A023DA0562
:100D8000A023D905864BCB580421181C8843011C8D
:100D9000834BD1502120FFF71DFE0120FFF71AFEE3
:100DA000A023DA05A023D9057D4BCB580421194394
:100DB0007B4BD150A023DA05A023D905784BCB5823
:100DC0000421181C8843011C754BD1502220FFF7C9
:100DD00001FE0120FFF7FEFDA023DA05A023D905BF
:100DE0006F4BCB58042119436D4BD150A023DA052A
:100DF000A023D9056A4BCB580421181C8843011C39
:100E0000674BD1502320FFF7E5FD0320FFF7E2FDFC
:100E1000A023DA05A023D905614BCB58042119433F
:100E20005F4BD150A023DA05A023D9055C4BCB58EA
:100E30000421181C8843011C594BD1502420FFF772
:100E4000C9FD0020FFF7C6FDA023DA05A023D905C0
:100E5000534BCB5804211943514BD150A023DA05F1
:100E6000A023D9054E4BCB580421181C8843011CE4
:100E70004B4BD1500520FFF7ADFD6B20FFF7AAFDCE
:100E8000A023DA05A023D905454BCB5804211943EB
:100E9000434BD150A023DA05A023D905404BCB58B2
:100EA0000421181C8843011C3D4BD1502620FFF71C
:100EB00091FD2620FFF78EFDA023DA05A023D9059A
:100EC000374BCB5804211943354BD150A023DA05B9
:100ED000A023D905324BCB580421181C8843011C90
:100EE0002F4BD1502720FFF775FD7020FFF772FDC3
:100EF000A023DA05A023D905294BCB580421194397
:100F0000274BD150A023DA05A023D905244BCB5879
:100F10000421181C8843011C214BD1503120FFF7BC
:100F200059FD2020FFF756FDA023DA05A023D9059F
:100F30001B4BCB5804211943194BD150A023DA0580
:100F4000A023D905164BCB580421181C8843011C3B
:100F5000134BD1502020FFF73DFD0F20FFF73AFD46
:100F6000A023DA05A023D9050D4BCB580421194342
:100F70000B4BD1500B4A0B49094BCB5880214900F0
:100F80001943074BD1500F20FFF77AFE054A054958
:100F9000034BC958044B1940014BD150BD4680BD8D
:100FA000FC3F000000000150FFFEFFFF80B500AFD6
:100FB000A023DA05A023D9054A4BCB580421181CDD
:100FC0008843011C474BD1502720FFF703FD7020B9
:100FD000FFF700FDA023DA05A023D905414BCB582C
:100FE000042119433F4BD150A023DA05A023D90592
:100FF0003C4BCB580421181C8843011C394BD15061
:10100000E120FFF7E7FCA023DA05A023D905354B43
:10101000CB5804211943334BD150A023DA05A02328
:10102000D905304BCB580421181C8843011C2D4B8B
:10103000D150A020FFF7CEFC2B4B00221A700CE001
:10104000294B1B78294AD35C181CFFF7C3FC264B9D
:101050001B780133DAB2244B1A70234B1B781F2BF9
:10106000EED9A023DA05A023D9051E4BCB580421C5
:1010700019431C4BD150A023DA05A023D905194BE5
:10108000CB580421181C8843011C164BD15020203A
:10109000FFF7A0FC0E20FFF79DFCA023DA05A0239C
:1010A000D905104BCB58042119430E4BD150104A8F
:1010B0000F490C4BCB58802149001943094BD150A3
:1010C0000F20FFF7DDFD0A4A0949064BC958094BB5
:1010D0001940044BD150084B181CFFF7D1FDBD46F9
:1010E00080BDC046FC3F00000C0000101400001042
:1010F00000000150FFFEFFFF8813000090B583B091
:1011000000AF021CFB1D1A70A023DA05A023D9052D
:10111000104BCB580421181C8843011C0D4BD15097
:10112000FB1D1B78181CFFF755FCFC1DFFF766FC28
:10113000031C2370A023DA05A023D905054BCB5847
:1011400004211943034BD150FB1D1B78181CBD46CD
:1011500003B090BDFC3F000038B5234C1F25626AE8
:10116000616AD205214B120F294092004900D058E4
:10117000023102F00AF9226F0321231C0A401C4CA1
:10118000022A26D08A4209D0012A05D11A6C0A40C7
:10119000022A1ED0032A1ED0164A1DE0196C0A40EE
:1011A000022A0DD0032A16D0C0209A6840001149A7
:1011B000024203D19A6815400135694321600CE071
:1011C000C02299685200114203D19A681540013536
:1011D0006843206001E000222260996F206802F0DD
:1011E000D4F8206038BDC04600800440183D00009F
:1011F00000000010001BB7001D4B8E229200995872
:101200002020814310B5995000221A62C822C0469E
:10121000013A002AFBD10121196459645A645964C6
:10122000596C134AC807FBD5232191608E21890090
:1012300050588024A0435050D86801210C4A0842DD
:10124000FAD0032010670020516750675167596F2B
:1012500001221142FBD0064B06499A67064BD9671B
:10126000064B1A60064B1A60064B1A6010BDC0464A
:10127000008004405F00010004800440948004402A
:10128000988004409C80044008B50020011C021C8A
:1012900000F08CFDFFF776FA08BD41180B78342B6F
:1012A00001DC00201CE0352B06D10B1C01331A7821
:1012B000302AFBD0002AF4D00B1C013B1A78392AC3
:1012C00002D130221A70F8E701321A700378302BFD
:1012D000E7D00B1A03D40B7801398B70F9E70120A2
:1012E000704770B5051C0C1C8E1FB4420CD0281C16
:1012F0000A2102F047F80A235B4243433035ED18D8
:10130000013C6570051CF0E770BD000000000000A6
:101310000EB410B591B013AB04CB041C00212822ED
:1013200006A8059301F088FC0A230993124B059A3D
:101330000893139B01920093104B06A802930D4B48
:101340000B4A069400F084FD089B041C013B0893A3
:10135000002B03DB069A0023137003E0002006A98C
:1013600001F090FC201C11B010BC08BC03B0184761
:10137000FFFFFFFFFFFFFF7FFFFFFF7F81130000E5
:10138000F0B50E684C68A5B007920A93321C231C76
:101390000C920D930B900D9843005B0D0F930F9DD6
:1013A000994B9D422AD10203079C051C0C980023EF
:1013B000120BE37002436E23002A14D1692263707A
:1013C00066232270A370002D03DA904B2A9C2360C1
:1013D00011E00A9DAD0704D40A9C640708D58C4B24
:1013E00007E08C4B05E0079C612223706270A370BC
:1013F000894B2A9D2B60032000F080FC0B9D20234D
:101400009D432B1C0025412B00D15AE2301C211C8E
:10141000704B6F4A02F07AFBA84205D0802000068C
:1014200001252418109500E01090301C211C694BF8
:10143000674A02F04FFB002800D021E217AA211CC6
:10144000301C01F031FD179C189019912E20FF30AF
:10145000604372494018FA21890001F093FF021B92
:1014600008905D485D4901F05FFD089C2290239142
:10147000002C05DA5A4A5B4B64421E921F9307E028
:10148000089D594A594B1E921F93002D16D02C1CB3
:10149000E00709D5229823991E9A1F9B01F0B0FFFF
:1014A00022902391012C09D01E981F991E9A1F9BF0
:1014B00001F0A6FF64101E901F91E9E71898199992
:1014C000229A239B02F060F81A901B911A981B999C
:1014D000474A484B02F01AFB002813D01A981B9970
:1014E000454A464B01F08CFF434A444B089C1A90F6
:1014F0001B9122982399013C089402F045F8229010
:101500002391E3E71A981B993D4A3E4B02F076FB84
:10151000002813D01A981B99374A384B02F034F838
:10152000354A364B089D1A901B9122982399013514
:10153000089501F065FF22902391E3E71A981B9923
:1015400002F06AFA089C099063421194002C00DAB8
:101550001193099802F0B3FA179B089DEA1A01F05B
:10156000E3FC1C4B1A4A1A901B911C921D93002DF0
:1015700056DA1B481B491E901F91209221931E9EF4
:101580001F9F1E981F990026321C3B1C02F0ACF8CE
:10159000209C219D021C0B1C201C291C02F098F988
:1015A000114A124B209021911E961F971E981F9949
:1015B00001F026FF021C0B1C0748084902F094F8B2
:1015C000094A0A4B01F0E0FF2090219132E0C04629
:1015D0000000000000000000000000000000F03FDC
:1015E0009A9999999999C93F000000000000144008
:1015F00000000000006AF8400000000000002440E5
:101600000000000080842E41FF0700008A3D00009A
:101610005A3D0000583D0000D83D000084EAFFFF1D
:10162000089CC449C2481E901F9120922193002C0F
:1016300000D17FE0119D0E950E9CE40743D51A98CA
:101640001B99209A219B1C9C1D9D129413951E9CF6
:101650001F9D209E219F01F0D3FE321C14901591F6
:101660003B1C201C291C02F033F9021C0B1C129895
:10167000139901F0C5FE021C0B1C1498159902F079
:1016800027F91C901D911A981B991E9A1F9B01F017
:10169000B7FE1A901B911A9E1B9F1A981B99002641
:1016A000321C3B1C02F020F81C9C1D9D021C0B1CD4
:1016B000201C291C02F00CF90E9D1C901D911A96FD
:1016C0001B97012D36D0209E219F1E9A1F9B101C18
:1016D000191C209C219D02F0FBF8221C2B1C02F0FF
:1016E000F7F8021C0B1C301C391C01F089FE2090FD
:1016F00021911E981F991E9A1F9B01F081FE1E903A
:101700001F911E9E1F9F1E981F990026321C3B1C76
:1017100001F0EAFF209C219D021C0B1C201C291CAF
:1017200002F0D6F80E9C2090219164101E961F970F
:101730000E9481E71A981B99189A199B02F022FAC5
:10174000002803D1099D013D099502E718981999D0
:101750001A9A1B9B01F0C8FF1890199118981999B3
:101760001C9A1D9B01F0C0FF1890199118981999A7
:10177000229A239B01F008FF6F4A704B1890199131
:101780001898199901F03CFE189019911898199918
:1017900002F042F9189E199F041C02F090F9021CF5
:1017A0000B1C301C391C01F09FFF634A634B01F096
:1017B00027FE189019911898199902F02DF9061C16
:1017C000002E03DA5E48013C3618F9E75D4B9E4275
:1017D00003DD5D4901347618F8E7002C05DA099D30
:1017E000574A013DA4180995F7E79C4205DD099D7C
:1017F0005548013524180995F7E7099D534B9D423B
:1018000019DC201C524901F0BDFD099B0A277B43CE
:10181000051C1B184E49301C099301F0B3FD4D4BBC
:101820005D43434364197C43089DF3183E1C241810
:101830005E43013D22E0434B0998984226DD0A2190
:1018400001F0A0FD0A277F42031C7B43EB183C4DAF
:1018500009906B43E318181C0A210E9301F092FDC6
:10186000041C381C60430E99081868433018053072
:101870000A2101F087FD089D061C0135089505E049
:10188000052300265B420893341C099607983025EF
:10189000011C057006310998FFF723FD0799201CEC
:1018A0000C31FFF71EFD0799301C1231FFF719FDAF
:1018B000079C0023E574089D23750535109CAD0039
:1018C0002543E80701D5244B0AE00A9CA40704D469
:1018D0000A9C640703D5214B02E0214B00E0214B19
:1018E0002A9C2B98236001239D43EB179B0F0B9998
:1018F0005D19AD100468612911D007DC452900D1BC
:1019000088E0472967D0412963D108E00B9A662A0D
:1019100000D108E1672A5ED0652A5AD17AE00D9B92
:101920000F9D1803000B002D20D00F496B1822E0EB
:1019300000000000000014400000000080842E41E0
:1019400040420F003F420F00C0BDF0FF9F860100E4
:10195000A08601006079FEFF8A3D00005A3D00002C
:10196000583D0000D83D000001FCFFFF0C9A0F9B82
:10197000024300D0C64B002C10D10A9D2D070DD478
:101980000B9C612C01D1C34900E0C3490F9A501E42
:10199000824130320798FFF7BBFC11E00B9D612DAF
:1019A00001D1BE4900E0BE490F9A0190551EAA41DF
:1019B0000C9D0293303200950798231CFFF7A8FC7A
:1019C0000D99002901DBB74B00E0B74B2A9C23603F
:1019D00094E167200B900A9980231B0119430A9117
:1019E000002C02DC2B9C012323602B9C12212368FA
:1019F000112B00DC591C0798FFF74FFC2B9C2D186E
:101A000023689D4200DA88E02B9C013B23600B9CFD
:101A1000023C0B942B9C2368112B05DD2D9C113B64
:101A200023602B9C112323602B98802600680A9941
:101A3000041C360102340E4004D10798211CFFF724
:101A40002CFC2D18079A2B98537813700368002BE1
:101A500003D1964B0A99194203D0079A2E2353704B
:101A600000E001242D980368002B03DD07993E2335
:101A70000B550134002E10D00A9A12070DD4079886
:101A80000319013B1B78302B01D1013CF7E73E2BBA
:101A9000FBD02E3B5A425341E41A0B9A0799631C20
:101AA0000A550234002D04DA2D226D42261CCA5438
:101AB00003E007982B22261CC2547D4B9D420CDD6F
:101AC000FA21281C890001F05DFC0799031C3033C2
:101AD0000B55784B661C58432D18632D0CDD281CC4
:101AE000642101F04FFC079C031C3033A355642391
:101AF0005B42584301362D18281C0A2101F042FC94
:101B00000A225242031C5043079C30333035A35500
:101B10002818A3195870B01CF0E0281D00DA73E7EC
:101B2000EA439B1823602B9C802322681B01002D15
:101B300051DA6E42511C8E4209DD079D30232B7015
:101B40002E236B7020682D9C206002243BE05219EC
:101B5000941C122C03DD2D9C113A226013240A9848
:101B600018420CD10798211CFFF797FB002806D0DC
:101B7000EE430134002E02D1079D6B780DE0079DE6
:101B80002B19012E0DD1079D5A1B002A03DD1A784F
:101B9000013B9A70F7E7013430232B702E236B70D2
:101BA00011E0079D5A1B002A03DD1A78013BDA7009
:101BB000F7E730232B702E236B703C23AB702C9DEA
:101BC000013E02342E602D9D2B68002B75DD079D94
:101BD0003E232B5527E0AE18B41C122C41DD0A9889
:101BE0001324184207D10798211CFFF756FB002841
:101BF00001D001351424621E079B954215DA5A78EC
:101C000007991A7001335A1AAA42F8DD4B192E228D
:101C10005A702B9A2D9B1268AD18113D1D60002D36
:101C20004BD03E230B55013447E059780798197083
:101C30000133191A9142F8DB03192D1B2C99013B32
:101C40003C2202351A700D602E222B9D02552A6807
:101C5000631C002A30D02D9D02342A603E22C254DB
:101C60002BE00A98184207D10798211CFFF715FBB3
:101C7000002801D00135F41C079B5A7807991A7087
:101C800001335A1AAA42F8DD4D192E236B7014E065
:101C900001FCFFFF5C3D0000643D00006C3D000066
:101CA0007B3D0000D83D00008A3D00000808000090
:101CB000E703000018FCFFFF1C1C0A9D2D0512D530
:101CC0000A9D201C2D0719D4079D2B19013B18785C
:101CD000302801D1013CF7E73E28FBD02E384342A3
:101CE0005841201A0AE02B9D201C2B68002B05D19F
:101CF0000A9C082323405A425341C01A25B0F0BD24
:101D0000F0B58FB00C1C071C161C0021282204A85B
:101D10001D1C00F091FF0A2307930E4B621E0693D1
:101D20000D4B0024019502930096231C04A80497F0
:101D300000F08EF8069B051C013B0693A34202DBD4
:101D4000049B1C7003E0201C04A900F09BFF281CCE
:101D50000FB0F0BDFFFFFF7F811300000FB473B51C
:101D600006AB20CB684601212A1C0193FFF7C8FF70
:101D7000041E14DD461C301C01F03CF900900028C4
:101D80000DD0311C2A1C019BFFF7BAFF064B0099AE
:101D9000D86B221CFEF7EAFB009801F08DF9201C9D
:101DA00076BC08BC04B018473C00001070B5244C49
:101DB000A02200215200201C00F03EFFC02001F0B4
:101DC00083F9204D0021C022286000F035FF2868EB
:101DD0000023282218215A435943A21841180133DD
:101DE0005162082BF5D1221C1749002000F0F4FFA6
:101DF000802280235B01201C0021D20000F0CEFE57
:101E0000261C124D2836291C321C012000F0E4FF4C
:101E100080228023301C5B0150340021D20000F06E
:101E2000BDFE291C221C022000F0D6FF8022802348
:101E3000201C0021D2005B0100F0B0FE70BDC04646
:101E40003C000010380000108C3D00008E3D00006A
:101E5000F0B5D1B00E920F930024569B579D071CEE
:101E6000079418785C1C0A94002801D100F092FEB7
:101E70000026252825D0079C079E0F990134F317CB
:101E8000994207DC01D000F072FE0E9AB24201D8EE
:101E900000F06DFEBB68013BBB60002B05DB3B68BF
:101EA0005A1C3A60187000F062FE391C00F0EAFE1D
:101EB00000F05DFE2B2C0BD92D2C0FD101231E43DE
:101EC0000A920A9B0A9A1C7801322B2CF2D10AE062
:101ED000202C0AD0232C0AD10823F0E7302C06D17D
:101EE00080239B00EBE70223E9E70423E7E72A2CA2
:101EF0000CD12B682A1D002B02DA01215B424E40D7
:101F00000A98151C447802300A9008E00023211C2E
:101F10003039C8B20A92092801D800F02CFEDA4301
:101F2000D217134000210C930B912E2C1CD10A9A2E
:101F300014782A2C06D12C6804350B94547802327C
:101F40000A9209E00A9B221C303A0133D1B20A936B
:101F5000092901D800F016FE0B98002802DB102397
:101F60001E4301E000210B916C2C0ED10A9A1478CB
:101F70006C2C05D15478602302321E430A9204E08F
:101F80000A9B01330A9320231E434C2C01D0712C51
:101F900004D10A98602304781E431EE0682C0FD1F8
:101FA0000A990C78682C05D180235B004C781E437D
:101FB00002311AE00A9A802301320A921E4315E088
:101FC0006A2C06D140231E430A9B1C7801330A93D6
:101FD0000CE07A2C04D10A98047801300A9005E0CC
:101FE000742C03D10A990C7801310A91672C1EDCFC
:101FF000652C00DBAAE2472C00D1A7E209DC412CCA
:1020000000D19DE2452C00D1A0E2002C00D1B2E02D
:1020100027E0612C00D193E203DC582C00D187E14A
:102020001FE0632C19D0642C00D138E219E0702C29
:1020300000D1D4E108DC6E2C00D1A2E000DDD8E1B3
:10204000692C00D12BE20CE0752C00D1FAE1782C40
:1020500000D198E1732C04D1B4E02C1D11942C68AC
:1020600000E011950C98012301383340089010933B
:1020700033D120210B91B20501D530260B960025D6
:1020800000260C9A0798023A521B43190892002A1C
:1020900022DB0798C117289029910F98289A299B2D
:1020A00052197341984203DC11D10E9991420ED915
:1020B000BB68013BBB60002B05DB3B685A1C3A60E8
:1020C0000B9A1A7003E00B98391C00F0DBFD01221B
:1020D0000023AD185E41D4E70793079E07990F9A36
:1020E0000136CB179A4203DC10D10E9B8B420DD9DF
:1020F000BB68013BBB60002B04DB3B685A1C3A60A9
:102100001C7003E0201C391C00F0BCFD109C0796DD
:10211000002C01D100F029FD002400250899E3439B
:10212000CB4221D4F0172A962B900F992A9A2B9BF9
:1021300012196B41994203DC11D10E9890420ED9CD
:10214000BB68013BBB60002B05DB3B685A1C3A6057
:1021500020221A7003E02020391C00F093FD012298
:102160000023A4185D41D9E7CB43DB170B40F318DC
:10217000079300F0FAFC0A9C1195013C0A9400F0C8
:10218000F4FC2B1D11932B68700605D5079CE217F4
:102190001C605A6000F0E9FCB00603D5079C1C6087
:1021A00000F0E3FCF00503D5079C1C7000F0DDFC9B
:1021B000300603D5079C1C8000F0D7FC079E1E60EC
:1021C00000F0D3FC2C1D2D6811941095002D01D129
:1021D000BF4C1094109800F005FD041CF00603D5C8
:1021E0000B998C4200DD0C1C0C9A0123121B33400E
:1021F00008920C9337D120230B93B00501D53026DC
:102200000B9600250026089A013A531B22D4079802
:10221000C1172C902D910F982C9A2D9B5219734118
:10222000984203DC11D10E9991420ED9BB68013B53
:10223000BB60002B05DB3B685A1C3A600B9A1A7096
:1022400003E00B98391C00F01DFD01220023AD189E
:102250005E41D8E7089EF343DB173340079ED21A4E
:10226000F6180796089200250026AC4224DD079850
:10227000C1172E902F910F982E9A2F9B52197341B0
:10228000984203DC13D10E99914210D9BA68109884
:10229000013ABA604319002A05DB3A68511C3960DB
:1022A0001B78137003E01878391C00F0EBFC012256
:1022B0000023AD185E41D8E7E343079EDB171C40BF
:1022C00036190C9C0796002C01D100F04EFC00241E
:1022D0000025089EE343F34222D4079E0F99F0178E
:1022E00030963190309A319B12196B41994203DC40
:1022F00011D10E9E96420ED9BB68013BBB60002BEC
:1023000005DB3B685A1C3A6020221A7003E020204B
:10231000391C00F0B7FC01220023A4185D41D8E766
:10232000F343079CDB173340E418079400F01DFCCF
:10233000402333400AD0073507239D43281C08302B
:1023400029686A6811900491059204E02A1D2D689D
:102350001192049505938023334006D068461021DE
:102360000B5A00220493059206E0F00504D5694655
:102370001020425C05930492310701D5554D00E0D1
:10238000554D564A29E0402333400AD007350723EC
:102390009D43281C083029686A68119004910592B1
:1023A00004E02A1D2D681192049505938023334083
:1023B00006D0684610210B5A00220493059206E0CD
:1023C000F00504D569461020425C0593049231075C
:1023D00001D5434D00E0404D424A9446ABE0281DF4
:1023E000404A2D68002104951190059194463C4D7A
:1023F000C7E0402333400AD0072307359D432B1CF9
:1024000008332868696811930490059104E0291D38
:102410002D681191049505938023334006D06A46B8
:102420001020835A00210493059106E0F20504D59B
:10243000684610210A5C05930492320700D477E0C5
:10244000294D76E0402333400AD0072307359D43CA
:10245000291C08312A686B6811910492059304E0E5
:10246000281D2D681190049505938023334005D0D5
:1024700069461022535A0493002305E0F00504D561
:1024800069461020425C0492059310223240124BA0
:10249000944675D0154A002116408C4670E07206AD
:1024A0000AD5072307359D432B1C08332868696824
:1024B00011931490159105E02B68291D1493DB17D7
:1024C00011911593320613D514A80023C35E14E0AE
:1024D000903D0000973D0000D83D00009F3D00006A
:1024E0009A3D0000B03D00009D3D0000FFFDFFFF54
:1024F000F10505D514AA0023D3561493DB171593C1
:10250000159B002B08DA149A159B00215042994123
:1025100004900591C84D0CE014981599049005910C
:10252000B10703D4720703D5C44D02E0C44D00E0E7
:10253000C44D00239C46F00623D5C3490E4020E03D
:1025400010231E4202D10D211E430B918023DB007C
:102550003343F20601D406260B960722073595432E
:10256000286869682E1C4690479100210022083691
:10257000049105920022119694461E1C151C00E041
:102580001D1C079B4395D81732933390329833998B
:102590000E9A0F9B121A8B41089209930B990123F3
:1025A0005B424493459342910023552048A95854D7
:1025B0000133202BF9D18223DB001E4201D10123FC
:1025C0004293672C16DC652C00DBC9E0472C00D158
:1025D000C6E006DC412C00D1C2E0452C00D0CFE0A3
:1025E000BEE0612C00D1BBE0642C11D0582C00D08F
:1025F000C6E010E0702C0ED005DC692C08D000235A
:102600006F2C21D0BCE0752C02D0782C03D0B7E021
:10261000002410942FE000230499059C0B93214380
:1026200000D1AFE004980F2101406246505C48A9F8
:10263000585405980499059A040708090443110998
:10264000049405910133E7E7049A05980B9302433C
:1026500000D197E0049807210140303148AA9954ED
:102660000599049A059C4807D1080843E20804909C
:1026700005920133E8E7109C049B05980B940343F3
:1026800000D17FE0049A05999208141C049A8B07E4
:102690001C43520820948808CB07141C21901C432B
:1026A00048082294239022982399209A219B12185B
:1026B0004B4114091907201C084319091890199156
:1026C0001898199912184B41140A1906201C08432E
:1026D000190A1A901B911A981B9912184B41140C45
:1026E0001904201C0843190C1C901D911C981D995D
:1026F00012184B41002126932791269827991218EA
:102700004B41D4085907201C0843D908169017914B
:1027100006240025049A059B16981799A4185D4174
:102720000A22002301F0A2FA241A8D4120092B0766
:10273000011C19432A091E911F92169817991E9A77
:102740001F9B12184B410A2050430499109C3031B2
:10275000081A48A9605401341094049205938AE73A
:1027600043AB009342AB019344AB029345AB03935D
:10277000201C46A948AA331C589CA0470B9001E096
:1027800000240B948023DB00334024930DD00023DE
:102790004293449B002B01DD013B4293459B002B60
:1027A0000BDD4298013BC31803E042990B9C0B1BC5
:1027B00001D4429301E0249C42940B984299002555
:1027C0004418439800F00EFA0C9A01233340141B6E
:1027D00025931E4B241A10941E4214D10024002568
:1027E00007E00998A84216DC12D001220023A418A1
:1027F0005D41109B013B1A1BF3D5109CE543ED177F
:1028000025405B1B1093002300241293139434E0A3
:102810000899A142E9D9BB68013BBB60002B05DBED
:102820003B685A1C3A6020221A70DEE7391C2020CF
:1028300000F028FAD9E7C0468A3D00005A3D000062
:10284000583D0000D83D0000FFFDFFFF01020000E1
:10285000E8173495359034983599129A139B1218CD
:102860004B410999994216DC12D00122002312989B
:1028700013998018594112901391439B129C5A1C32
:1028800043921B782C190C949C46002BE0D112E04B
:10289000089C9442E9D9BB68013BBB60002B05DB77
:1028A0003B6860465A1C3A601870DEE76046391C87
:1028B00000F0E8F9D9E72598002833D12024B105A4
:1028C00000D5302400250026109A013A531B21D44C
:1028D0000C9A0998D31736923793369A379B521928
:1028E0007341984203DC10D1089991420DD9BB681D
:1028F000013BBB60002B04DB3B685A1C3A601C7038
:1029000003E0201C391C00F0BDF901220023AD18A2
:102910005E41D9E7109C0C9EE343DB172340D21A9B
:10292000F4181092249E002E02D10025002698E073
:1029300000260B98864200DBE5E048ABF05C3C28C3
:1029400004D03E2865D10020002145E0002100226E
:102950000C910D92449B0C99013B65184493002BFC
:102960006DDBE21739923894389839990C9A0D9B9F
:1029700012184B410999994203DC11D108989042F1
:102980000ED9BB68013BBB60002B05DB3B685A1CC2
:102990003A6030221A7003E03020391C00F072F9DE
:1029A0000C980D9901220023801859410C900D912B
:1029B000D0E7E2173B923A943A983B990C9A0D9BD8
:1029C00012184B410999994213DC0FD001220023C0
:1029D0000C980D9980185941459B0C900D910C99BC
:1029E000013B65184593002BE3DA28E008989042F4
:1029F000ECD9BB68013BBB60002B05DB3B685A1C74
:102A00003A6030221A70E1E7391C302000F03AF9C0
:102A1000DCE7099A651CE3179A4203DC0FD1089B97
:102A2000A3420CD9BB68013BBB60002B04DB3B68B5
:102A30005A1C3A60187002E0391C00F023F9013684
:102A40002C1C76E7E1173C943D9109983C9A3D9BFC
:102A50005219734198420FDC0BD001220023AD18AC
:102A60005E41429B6219013B0C924293002BE9DAD2
:102A700012E008999142F0D9BB68013BBB60002B82
:102A800005DB3B685A1C3A6030221A70E5E7391CB6
:102A9000302000F0F7F8E0E7002400250B9E211C11
:102AA000331B002B2ADD0C9EF0173E963F90099EAB
:102AB0003E9A3F9B12196B419E4203DC19D1089844
:102AC000904216D9BB68013BBB60002B09DB3B6819
:102AD0000B985A1C48AE3A60C94332188A5C1A7087
:102AE00007E00B9E48AAC9439319C85C391C00F043
:102AF000C9F801220023A4185D41CFE7F443E4178D
:102B000034400C9E3419259E002E2BD00025002623
:102B10001099EB43CB4221D4E0174094419009999E
:102B2000409A419B52197341994203DC11D1089894
:102B300090420ED9BB68013BBB60002B05DB3B68B4
:102B40005A1C3A6020221A7003E02020391C00F041
:102B500099F801220023AD185E41D9E7CB43DB177A
:102B60000B40E418079E36190796119D079C0794A1
:102B70000A9BFFF776F90A24634314785B18013245
:102B8000FFF7C5F90B9C0A2161438A180B921C7848
:102B9000FFF7D9F9079851B0F0BDC046F0B5C56848
:102BA0000124AE071AD08026B600B2420BD0802690
:102BB000F600B24204D08026A640B2420ED102E016
:102BC000416A231C04E0064E5F1E0124B74205D86B
:102BD0002A4301610160C361C2600024201CF0BD72
:102BE000FEFFFF0010B5411C820706D00130431ED6
:102BF0001B78002BF8D1401A18E003680C4A9C1887
:102C00000C4A9C43144201D10430F6E7DCB2421C6A
:102C1000002C0AD0FF242402821C234205D0FF246A
:102C20002404C21C234200D0021D501A10BDC0460D
:102C3000FFFEFEFE8080808008B501F02EF808BD02
:102C4000C26820239A43436A10B5041CE2605B68A3
:102C500082699A420DD000F0F3F8E268074B134006
:102C600010221343626AE3605368A361236993608F
:102C70002360E268024B1340E36010BDEFCFFFFF1B
:102C8000BFBFFFFFF8B5514ACB68061C1A400C1CA9
:102C9000CA60980602D5081CFFF7D2FFA268E36855
:102CA000511C0EDA98050CD4022149428A1AA260FE
:102CB000902252021343E36023685A1C22601E7064
:102CC00081E0434A1D1C1A40022A05D00022A2605E
:102CD00080221343E36054E03E490B408021090207
:102CE0008B420AD10021201C00F050FAE1688906CD
:102CF00002D5201CFFF7A4FFE56890235B02F022B9
:102D00002B431201E36015421ED1606900F0E1FF20
:102D100000280BD06A0509D5636A2361236001236B
:102D2000E36192235B022B43E3600DE080277F0188
:102D3000381C00F0C9F99423E2685B022B431A4364
:102D400020612060E761E260902109012268256925
:102D50000B4219D0636A99688A4200D9111C491B39
:102D600009D1636A6A1C9A602260E269511EA160FF
:102D7000DA602E7027E0281C221C00F005F90028DC
:102D8000EFD0012040421FE0511CF0B221601070D2
:102D9000626A2768916884468F4200D9391CE769C6
:102DA000491BD760580504D463460A2B01D0B942A9
:102DB00009DB00239560281C2560A360221C00F01D
:102DC000E3F80028DDD1F0B2F8BDC046FFFFF7FF01
:102DD0008A10000010A0000070B50D1C061C101C0D
:102DE000141C00F081F92B78722B06D0772B07D0BA
:102DF000612B20D10823114A04E00023012201E0C5
:102E000004230222013529782B2905D0622908D113
:102E100004210A43012102E003210A4302210B435A
:102E2000F0E7E26066611A0706D5201C0021022245
:102E300000F0ACF900E00024201C70BD028000000E
:102E400038B5436A041C056902689968C368134869
:102E50001840E06082201840022802D00120404241
:102E60001AE080204002184016D0914200D2111C76
:102E7000A94209D1636AE2689D60094B00201340B2
:102E80002560A060E36007E0491B281C221C00F0BD
:102E90007BF80028EED0E1E738BDC046FFFFF7FF22
:102EA000FFFFFEFF00000000F8B5141C194B184A84
:102EB000061C0F1C00F00EFE002804D00023236027
:102EC0001449134823E07A00134D520D301C391C6D
:102ED0005319002A15D13D032D0B321C6F00D60F5C
:102EE0003E43802736033F03360B52003D4205D058
:102EF0000D0D2D05291C3143101C02E0013B351C32
:102F0000ECE72360054A064B0B40111C1943F8BD42
:102F1000000000000000000002FCFFFF0000E03F96
:102F2000FFFF0F80C046C046D0B5141C114B104A9D
:102F3000061C0F1C00F0CEFD002802D00D490C48E5
:102F400015E07B005B0D1C190B4B301C9C4206DD11
:102F50000A4B22221A600A4B1868596807E0002CB5
:102F6000ECDD084B64053B406408191C2143D0BDCF
:102F70000000000000000000FE070000100000102C
:102F8000E03D0000FFFF0F80F7B5D56801900E1CF3
:102F9000141C5769EA0205D51023381C1D4300F0A4
:102FA00095FEA061114B1D4208D0381CA16900F0AC
:102FB00096FE002813DB0E4B1D40E560321C381CCA
:102FC0000199FDF7D3FA801B431E9841404243000C
:102FD0005B08F61AA3699E19A661002805D0E2686D
:102FE000802313430120E3604042FEBD1000020035
:102FF000EFFFFDFFF8B52F4FC51C3C68AD0800285A
:103000000FD0002606E0216880235B05994215D089
:10301000261CA468002CF6D10C3000F063F9421C89
:103020003CD1002045E01668802149058E4209D137
:10303000516892685B1803336360A260A26863689A
:10304000002AF0D1AB4206DBE91C994203DB802366
:103050009B05236020E0291C0A318B4210D9802176
:103060008905201C21600C30A90041186560A16011
:103070005B1B80246405033B0C604B608A6018E096
:10308000002AC5D19B00C01A00F02CF90130C8D02D
:1030900080239B0523606560201C09E080239B053D
:1030A000036045608460002E01D1386000E0B060AC
:1030B0000C30F8BD7C010010002803D080230C38B0
:1030C0005B0503607047000010B5FFF793FF041E17
:1030D00005D104491722FDF749FA00F0F3FD201C41
:1030E00010BDC046C13D0000F0B5436AC5688BB055
:1030F000041C476906690193AB0726D02B0716D439
:1031000000F02AF8381C00F0DEFD2B0502D5301C3B
:10311000FFF7D2FF0F4BAD0DAD059D4207D102A8C1
:10312000216A202200F0DEFD02A800F0D1F8002183
:103130001822606AFFF780FD201C00212822FFF77B
:103140007BFD019B0020636201E0012040420BB047
:10315000F0BDC046000080AD38B5002803D000F0B7
:10316000E1F8051C0EE0041C051C0748201800F0BF
:10317000D9F8002801D001256D42A02328345B0036
:103180009C42F2D1281C38BD3C000010F7B53B4BE7
:103190000D1CC168041C161C47690091194269D0B6
:1031A000381C00F096FD0190002863D1012E04D058
:1031B000022E07D0002E5DD123E0201C00F062F823
:1031C0002D181EE0381C00F081FDE168002804DAAB
:1031D00080231943E16001264DE0626A2668936806
:1031E0009E4200D9331CA6699B1926699B1B8E063B
:1031F00003D55268934200DA131C834200DA031CA1
:10320000ED18002D36DB009E636AB60404D52268F3
:103210009968914200D29A60A1698D420DDB2068C5
:103220009A68824200D2021C20695618361AB542AA
:1032300003DCDF68CE19B54207DB009E00212022A7
:10324000A160616032435D6010E0009E6D1AB607B8
:1032500001D5EF1BA760009EF60702D5821AAA18B7
:103260006260009A4519202325609A43044B1A4056
:10327000E26001E0022601960198FEBD0300100005
:10328000BFCFF7FFC368990705D1104B212201205A
:103290001A60404218E0202219030BD5134202D0D5
:1032A000436A586804E0036881695A180369D01AB0
:1032B000013809E0134202D0436A586804E0036809
:1032C00081695A180369D01A7047C046100000106F
:1032D00010B5041CFFF786FC011C201C00F0FCFC50
:1032E00010BD000070B50C4C2368002B01D10B4BB6
:1032F0002360C61C256803239E43AE19301C00F0D2
:1033000035F8002802D12660281C04E0044B0C226A
:1033100001201A60404270BD80010010840100103D
:1033200010000010C36870B5041C032018401AD0A8
:103330009A0605D5636A201C5D68FFF781FC04E0EE
:103340002368A2699D182369ED1AE268064B201CC8
:103350001340E360FFF774FD291C061C0022201CAB
:10336000FFF714FF301C70BDFFCFFFFF044B002B95
:1033700004D0002298425241101C00E0181C7047F3
:103380000000000003000B4321D4002931D00122AA
:10339000D207030901E0090112099942FBD9430848
:1033A00001E0490052089942FBD900E04908401A5F
:1033B00007D35241FAD301461046704749084018D6
:1033C000F7D29218FAD34018014610467047CB0F37
:1033D00000D04942021000D54042534008B5FFF7E3
:1033E000D4FF0CBC521000D34042002A00D5494201
:1033F0001847F446002000F001F8604770470000CD
:10340000F0B58BB01F1C009201934B000D1C049073
:1034100005915B0D00D181E053498B4200D17DE0E5
:103420007A00520D7AD08A4278D0D2183B1C6B4079
:10343000DB0FDB070098039380242B031B0B640333
:103440001C430892FE02420D802316431B061E43B6
:103450000021221C301C0B1C00F008FC0690079178
:103460000099201CCD0200212A1C0B1C00F0FEFB41
:1034700009910021041C049A301C0B1C00F0F6FB7F
:10348000009001910021281C049A0B1C00F0EEFB17
:10349000009A019B8446081C0021261C0F1C36182C
:1034A0004F41B6185F41099A3C1C0D1C0B1C1219A8
:1034B0006B4164460698079912184B41A1082B48A6
:1034C000089C0E4321182A4898420AD329481D1CFB
:1034D0002118141CA4185D41F00F221C02432B1C60
:1034E0007600F40F002512196B418020141C000691
:1034F000864201D1012084431F48814205D80A0534
:103500000399201C0B43D11827E0002903DB1B4B38
:10351000039C234300E0039B191C1DE03A1C6A40F6
:103520001749D20FD2076B008B4204D8780088422B
:1035300004D8111C10E013498B4207D111487900BF
:10354000814203D85B0D01D0490D02D105490448E1
:1035500003E00A4B191C114300200BB0F0BDC0461C
:10356000000000000000F87FFF07000001FCFFFFE3
:10357000FFFF0F0000FCFFFFFD0700000000F07FD1
:10358000FFFFDFFF0000E0FFF0B50D1C87B06E000D
:103590000490059102920393191C760D5FD04C4A5A
:1035A00096425CD05B005B0D59D0934257D00A1C09
:1035B0006A40E802049D029FCC02F61A80216B0D3E
:1035C000184309067B0D1C430B1C00920343EA02BF
:1035D0000C43FD029C4202D803D1954201D93D49DA
:1035E00006E0DF07590850080B1C3A1C3A49024311
:1035F000E707680876183843610835250024640019
:10360000994206D801D1904203D80127121A8B4162
:103610003C4392185B416F1E212D02D101943D1C49
:10362000EDE73D1EEBD1994208D801D1904205D873
:10363000019D013463426341ED1801950099274BC8
:10364000CF0FFF079E4204D83605019DF71979195F
:103650001EE0002E01DB224E3743391C2AE0214FA9
:103660006E00BE4228D84A00BA4225D80B1C2B4314
:103670005B005B0D5B0503D112491148181C1DE06E
:103680000B1C6B40DB0F740DDB07640502D1191CAA
:10369000201C13E0540D640503D1114A111C194379
:1036A000F6E7BA4203D00E4A111C194302E09642D3
:1036B00002D0191C002001E00348044907B0F0BD06
:1036C000000000000000F87F000000000000F87F0C
:1036D000FF070000FD030000FE030000FD070000DF
:1036E0000000F07F0000E0FFF0B587B0029003918A
:1036F000039F1D1C00920193049005913A1C9C4667
:10370000049E009B6A4006D580263606AB19009AB7
:1037100000F0DEF8C9E0AF4203D39E420AD8AF42C0
:1037200008D180200006039F12185740049B6A406E
:10373000009E944661460A0D614862493C0DA21AFA
:103740002140814200D1A3E08A4200D19AE0604644
:1037500001033F03802040033F0B090B0743014354
:103760001F2A50D8081CD0403F1A2025181CD040D2
:10377000AA1A91400843301A8642B6417642191C73
:10378000BF1B9140061C002905D0013E731C5A4204
:1037900053414942FF1AC0235B031F4251D1F30F2B
:1037A000C90F76007F000E431F43331C3B4301D0FB
:1037B000A31E01E0191C52E07A0B05D1320E3F0224
:1037C00017433602083BF7E77A0C04D1320F3F016A
:1037D00017433601043BFA0C04D1B20FBF00174364
:1037E000B600023B3A0D04D1F20F7F00174376007A
:1037F000013BE40ADA0A944202D11B05D91953E0CD
:10380000E107002051E0352A1BD8151C203D081C7B
:10381000E840301A8642B6417642BF1B4026B21AB3
:1038200091401A1CEA4011431B0602D0FF231943A2
:1038300002E0061C002904D0461E4342434149428F
:10384000FF1AFB020DD4013C630507D0F30F7F0084
:103850001F437600CB0F1E43490002E02105181CD0
:1038600023E0194B24051F40002909DA0136734271
:103870007341FF1880231B06994201D101239E4307
:10388000391911E0114B9A4202D8111E09D00AE0F1
:103890003B0302D00749064807E0002A03D1064847
:1038A0000649101C01E0391C301C07B0F0BDC046B1
:1038B000000000000000F87F000000000000F87F1A
:1038C000FF070000FFF7FFFFFFFFEFFFFE0700000D
:1038D000F0B587B002900391039F1D1C00920193E5
:1038E000049005913A1C9C46049E009B6A4006D5B4
:1038F00080263606AB19009AFFF7F6FE7DE0AF4250
:1039000005D2039F049B5740009E6A4094463E495F
:103910003E4A380D0140914268D06446220D821A19
:103920008A425AD021033F03802464033F0B090BD2
:10393000274321431F2A10D80C1CD4403F192025AF
:103940001C1CD440AA1A9140214376188E4289410A
:1039500049427F18191C914014E0352A12D8141CD2
:10396000203C0D1CE5407619AE42AD416D427F19F9
:103970004025AA1A91401A1CE24011431B0601D0AF
:10398000FF231943BB0218D5013673427341FF1858
:10399000002901D102239E4302057B089B181C4A83
:1039A0005900914205D87608FF07301C191C38438E
:1039B00023E0431C190500201FE00138002909DA23
:1039C000013673427341FF1880231B06994201D1CF
:1039D00001239E430305F9180EE00E4B9A4205D8C9
:1039E000002A08D1FF0FF907101C06E03B0302D0A4
:1039F0000449034801E0391C301C07B0F0BDC04643
:103A0000000000000000F87FFFF7FFFFFF07000045
:103A1000FFFFDFFFFE0700000B1C400DC90208433B
:103A20008021090610B50B4C0843190D611AC840D6
:103A3000FF290ED9E024E4004042214209D00020B1
:103A4000590006D504495C008C4202D8D80F034BBC
:103A5000C01810BD1E0400000000E0FFFFFFFF7F44
:103A600010B5002802D1031C021C25E0030C01D173
:103A7000000402E080235B04C918030E01D1000298
:103A800002E080231B04C918030F01D1000102E0EA
:103A90008023DB03C918830F01D1800002E080235B
:103AA0009B03C918002801DB400002E080235B0370
:103AB000C918C41263184205101C191C10BDC10F8F
:103AC00008B5C90700D040428023DB05C918FFF7BD
:103AD000C7FF08BDF7B50D1C009201931F1C9C4643
:103AE0006B000C1C009A011C184304D17D00154387
:103AF0000120002D07D00020644504D1914202D15D
:103B0000014A9A424041FEBD0000E0FFF0B585B099
:103B10000D1C009201931A1C8C46029003911F1CED
:103B2000191C2A43164B0ED47A0000209A4224D83E
:103B30000120AF4221D80020AF421ED1029A009B43
:103B40009A42804118E06A0000209A4215D87C0011
:103B50009C4212D8029B1A43824203D1009A14431A
:103B600084420AD001208C4507D800208C4504D11E
:103B7000009B029A93428041404205B0F0BDC0468E
:103B80000000E0FFF0B587B0009201930D1C049097
:103B900005910E1C01990498029203930A1C844615
:103BA000029F2A43144B0CD44A0000249A421FD887
:103BB0000124A9421CD80024A94219D1874264419A
:103BC00016E06D0000249D4212D8019842009A42EE
:103BD0000ED801248E420BD801D1BC4508D20499DD
:103BE00000240D43A54203D1029B1A435442544181
:103BF000201C07B0F0BDC0460000E0FFF0B585B066
:103C0000029003910D1C0C1C029900920193181C48
:103C10001F1C28436B008C46009A134D00280CDBB8
:103C20000020AB421ED80120BC421BD80020BC4261
:103C300018D163469342404114E00020AB4211D8B2
:103C40007E00AE420ED80120A7420BD801D16245BA
:103C500008D2029900200B43834203D1009B3343D7
:103C60005842584105B0F0BD0000E0FF10B5434395
:103C70005143C918040C130C5C43091992B2040C8B
:103C8000544380B2434350432204240C80186141C2
:103C90001A041B0C8018594110BD8446043A09D3FC
:103CA000830707D109060B0A19430B0C1943043A81
:103CB00002C0FCD2043203D001700130013AFBD1C2
:103CC00060467047FEE701204042704701204042B5
:103CD0007047012040427047012040427047012058
:103CE00040427047012040427047000025730A009F
:103CF000456E766961646F210000000025732575AB
:103D00000A00000056616C6F7220646F2072656754
:103D1000697374726F3A2000801A060020A10700B0
:103D200000350C00E0C81000C05C1500006A1800E7
:103D300040771B0080841E00C0912100009F24005A
:103D400040AC2700E032290020402C00604D2F00BD
:103D500000D4300040E133002B0020003078256390
:103D60007025640030582563502564003078256341
:103D70002E252E2A6C6C7870256400305825632E11
:103D8000252E2A6C6C58502564002D007200770097
:103D9000286E756C6C290030580030780030003087
:103DA00031323334353637383941424344454600A1
:103DB00030313233343536373839616263646566A1
:103DC000002A2A2A205F437379735F616C6C6F63EA
:103DD000206661696C65640A000000000000000054
:083DE000FFFFFFFFFFFFEF7F73
:043DE800006CDC028D
:0400000300000149AF
:00000001FF
